{
  "abi": [
    {
      "inputs": [
        {
          "internalType": "address",
          "name": "_b",
          "type": "address"
        }
      ],
      "stateMutability": "payable",
      "type": "constructor"
    },
    {
      "inputs": [],
      "name": "payHalf",
      "outputs": [],
      "stateMutability": "nonpayable",
      "type": "function"
    }
  ],
  "bytecode": {
    "object": "0x608060405260405161017a38038061017a83398101604081905261002291610047565b600080546001600160a01b0319166001600160a01b0392909216919091179055610077565b60006020828403121561005957600080fd5b81516001600160a01b038116811461007057600080fd5b9392505050565b60f5806100856000396000f3fe6080604052348015600f57600080fd5b506004361060285760003560e01c80631d9ab27014602d575b600080fd5b60336035565b005b600080544791906001600160a01b0316604e600284609e565b604051600081818185875af1925050503d80600081146088576040519150601f19603f3d011682016040523d82523d6000602084013e608d565b606091505b5050905080609a57600080fd5b5050565b60008260ba57634e487b7160e01b600052601260045260246000fd5b50049056fea264697066735822122042b81717b4e748d0667e5f534fdde1336a485afa23ab744de1fd754eebbd52d164736f6c63430008140033",
    "linkReferences": {}
  },
  "methodIdentifiers": {
    "payHalf()": "1d9ab270"
  },
  "id": 18
}