{
  "abi": [
    {
      "stateMutability": "nonpayable",
      "type": "fallback"
    },
    {
      "inputs": [
        {
          "internalType": "uint256",
          "name": "x",
          "type": "uint256"
        },
        {
          "internalType": "uint256",
          "name": "y",
          "type": "uint256"
        }
      ],
      "name": "add",
      "outputs": [
        {
          "internalType": "uint256",
          "name": "",
          "type": "uint256"
        }
      ],
      "stateMutability": "pure",
      "type": "function"
    }
  ],
  "bytecode": {
    "object": "0x608060405234801561001057600080fd5b506101d5806100206000396000f3fe608060405234801561001057600080fd5b506004361061002b5760003560e01c8063771602f71461006d575b61006b6000368080601f01602080910402602001604051908101604052809392919081815260200183838082843760009201919091525061009292505050565b005b61008061007b36600461010e565b6100d8565b60405190815260200160405180910390f35b6100d5816040516024016100a69190610130565b60408051601f198184030181529190526020810180516001600160e01b03166305f3bfab60e11b1790526100ed565b50565b60006100e4828461017e565b90505b92915050565b80516a636f6e736f6c652e6c6f67602083016000808483855afa5050505050565b6000806040838503121561012157600080fd5b50508035926020909101359150565b600060208083528351808285015260005b8181101561015d57858101830151858201604001528201610141565b506000604082860101526040601f19601f8301168501019250505092915050565b808201808211156100e757634e487b7160e01b600052601160045260246000fdfea2646970667358221220995cddd5293c98e9722c413e75681da86335a423539485edc32eec2f956251a864736f6c63430008140033",
    "linkReferences": {}
  },
  "methodIdentifiers": {
    "add(uint256,uint256)": "771602f7"
  },
  "id": 18
}