{
  "abi": [
    {
      "anonymous": false,
      "inputs": [
        {
          "indexed": true,
          "internalType": "uint256",
          "name": "key",
          "type": "uint256"
        },
        {
          "indexed": false,
          "internalType": "uint256",
          "name": "amount",
          "type": "uint256"
        }
      ],
      "name": "OrderCreated",
      "type": "event"
    },
    {
      "inputs": [
        {
          "internalType": "address",
          "name": "buyer",
          "type": "address"
        },
        {
          "internalType": "address",
          "name": "seller",
          "type": "address"
        },
        {
          "internalType": "uint256",
          "name": "amount",
          "type": "uint256"
        }
      ],
      "name": "createOrder",
      "outputs": [],
      "stateMutability": "nonpayable",
      "type": "function"
    },
    {
      "inputs": [
        {
          "internalType": "uint256",
          "name": "key",
          "type": "uint256"
        }
      ],
      "name": "getOrder",
      "outputs": [
        {
          "components": [
            {
              "internalType": "address",
              "name": "buyer",
              "type": "address"
            },
            {
              "internalType": "address",
              "name": "seller",
              "type": "address"
            },
            {
              "internalType": "uint256",
              "name": "amount",
              "type": "uint256"
            },
            {
              "internalType": "enum Example.OrderStatus",
              "name": "status",
              "type": "uint8"
            }
          ],
          "internalType": "struct Example.Order",
          "name": "",
          "type": "tuple"
        }
      ],
      "stateMutability": "view",
      "type": "function"
    },
    {
      "inputs": [
        {
          "internalType": "uint256",
          "name": "",
          "type": "uint256"
        }
      ],
      "name": "orders",
      "outputs": [
        {
          "internalType": "address",
          "name": "buyer",
          "type": "address"
        },
        {
          "internalType": "address",
          "name": "seller",
          "type": "address"
        },
        {
          "internalType": "uint256",
          "name": "amount",
          "type": "uint256"
        },
        {
          "internalType": "enum Example.OrderStatus",
          "name": "status",
          "type": "uint8"
        }
      ],
      "stateMutability": "view",
      "type": "function"
    },
    {
      "inputs": [
        {
          "internalType": "uint256",
          "name": "key",
          "type": "uint256"
        }
      ],
      "name": "payment",
      "outputs": [],
      "stateMutability": "payable",
      "type": "function"
    }
  ],
  "bytecode": {
    "object": "0x608060405234801561001057600080fd5b5061056a806100206000396000f3fe60806040526004361061003f5760003560e01c80638b3c99e3146100445780639a5d6a4a14610059578063a85c38ef14610079578063d09ef241146100b2575b600080fd5b6100576100523660046103d5565b6100df565b005b34801561006557600080fd5b5061005761007436600461040a565b610162565b34801561008557600080fd5b506100996100943660046103d5565b6102cc565b6040516100a9949392919061047e565b60405180910390f35b3480156100be57600080fd5b506100d26100cd3660046103d5565b610315565b6040516100a991906104b3565b60008082815481106100f3576100f36104f7565b6000918252602090912060049091020180549091506001600160a01b0316331461011c57600080fd5b3481600201541461012c57600080fd5b6000600382015460ff16600181111561014757610147610446565b1461015157600080fd5b600301805460ff1916600117905550565b604080516080810182526001600160a01b03858116825284811660208301908152928201848152600060608401818152815460018082018455928052855160049091027f290decd9548b62a8d60345a988386fc84ba6bc95484008f6362f93160ef3e563810180549287166001600160a01b031993841617815597517f290decd9548b62a8d60345a988386fc84ba6bc95484008f6362f93160ef3e564820180549190971692169190911790945591517f290decd9548b62a8d60345a988386fc84ba6bc95484008f6362f93160ef3e56584015590517f290decd9548b62a8d60345a988386fc84ba6bc95484008f6362f93160ef3e56690920180549394859490939260ff1990911690838181111561027d5761027d610446565b021790555050600054610293915060019061050d565b6040518381527f7ab7b5bf31475b82f820e7fdfd6387632fc391f3bbd3f28afa54804f30bebd4d9060200160405180910390a250505050565b600081815481106102dc57600080fd5b600091825260209091206004909102018054600182015460028301546003909301546001600160a01b0392831694509116919060ff1684565b61033d6040805160808101825260008082526020820181905291810182905290606082015290565b60008281548110610350576103506104f7565b600091825260209182902060408051608081018252600490930290910180546001600160a01b03908116845260018083015490911694840194909452600281015491830191909152600381015491929091606084019160ff909116908111156103bb576103bb610446565b60018111156103cc576103cc610446565b90525092915050565b6000602082840312156103e757600080fd5b5035919050565b80356001600160a01b038116811461040557600080fd5b919050565b60008060006060848603121561041f57600080fd5b610428846103ee565b9250610436602085016103ee565b9150604084013590509250925092565b634e487b7160e01b600052602160045260246000fd5b6002811061047a57634e487b7160e01b600052602160045260246000fd5b9052565b6001600160a01b0385811682528416602082015260408101839052608081016104aa606083018461045c565b95945050505050565b81516001600160a01b039081168252602080840151909116908201526040808301519082015260608083015160808301916104f09084018261045c565b5092915050565b634e487b7160e01b600052603260045260246000fd5b8181038181111561052e57634e487b7160e01b600052601160045260246000fd5b9291505056fea26469706673582212201a863853507c3b9cae4eea51b57db51748a9c86bf683db7bdbd4fe6ab4cd565e64736f6c63430008140033",
    "linkReferences": {}
  },
  "methodIdentifiers": {
    "createOrder(address,address,uint256)": "9a5d6a4a",
    "getOrder(uint256)": "d09ef241",
    "orders(uint256)": "a85c38ef",
    "payment(uint256)": "8b3c99e3"
  },
  "id": 18
}