{
  "abi": [
    {
      "inputs": [],
      "name": "belongs",
      "outputs": [
        {
          "internalType": "bool",
          "name": "",
          "type": "bool"
        }
      ],
      "stateMutability": "view",
      "type": "function"
    },
    {
      "inputs": [],
      "name": "join",
      "outputs": [],
      "stateMutability": "nonpayable",
      "type": "function"
    }
  ],
  "bytecode": {
    "object": "0x608060405234801561001057600080fd5b5060cc8061001f6000396000f3fe6080604052348015600f57600080fd5b506004361060325760003560e01c8063b5f545c6146037578063b688a363146073575b600080fd5b60408051336020808301919091526001828401528251808303840181526060830180855281519190920120541515905290519081900360800190f35b6094336000908152600160208190526040909120805460ff19169091179055565b00fea26469706673582212208e29adbfc24d368035e8934b30eace2e89287569c7b204f4aebaae52dbe7e64c64736f6c63430008140033",
    "linkReferences": {}
  },
  "methodIdentifiers": {
    "belongs()": "b5f545c6",
    "join()": "b688a363"
  },
  "id": 18
}