{
  "abi": [
    {
      "inputs": [],
      "name": "payout",
      "outputs": [],
      "stateMutability": "nonpayable",
      "type": "function"
    },
    {
      "inputs": [
        {
          "internalType": "address",
          "name": "",
          "type": "address"
        }
      ],
      "name": "sendValue",
      "outputs": [],
      "stateMutability": "nonpayable",
      "type": "function"
    }
  ],
  "bytecode": {
    "object": "0x608060405234801561001057600080fd5b5060c68061001f6000396000f3fe6080604052348015600f57600080fd5b506004361060325760003560e01c806363bd1d4a1460375780637d286e4814603f575b600080fd5b603d604d565b005b603d604a3660046062565b50565b600054600160a01b900460ff1615606057565b565b600060208284031215607357600080fd5b81356001600160a01b0381168114608957600080fd5b939250505056fea2646970667358221220176e3ab148e26aeecf17a523973174934016a0333ef128c0107f22d9102554f564736f6c63430008140033",
    "linkReferences": {}
  },
  "methodIdentifiers": {
    "payout()": "63bd1d4a",
    "sendValue(address)": "7d286e48"
  },
  "id": 1
}