{
  "abi": [
    {
      "inputs": [],
      "name": "NotTheOwner",
      "type": "error"
    },
    {
      "inputs": [
        {
          "internalType": "uint256",
          "name": "x",
          "type": "uint256"
        }
      ],
      "name": "privilegedMethod",
      "outputs": [],
      "stateMutability": "nonpayable",
      "type": "function"
    }
  ],
  "bytecode": {
    "object": "0x6080604052600080546001600160a01b0319163317905534801561002257600080fd5b5060bb806100316000396000f3fe6080604052348015600f57600080fd5b506004361060285760003560e01c8063fb8b215714602d575b600080fd5b603c6038366004606d565b603e565b005b6000546001600160a01b031633146068576040516336b6b89560e01b815260040160405180910390fd5b600155565b600060208284031215607e57600080fd5b503591905056fea26469706673582212209e3e7feae78d359ac82a64f90c3ed570f36dccbcf6215cb9a50469ec916b1b0364736f6c63430008140033",
    "linkReferences": {}
  },
  "methodIdentifiers": {
    "privilegedMethod(uint256)": "fb8b2157"
  },
  "id": 18
}