{
  "abi": [
    {
      "inputs": [
        {
          "internalType": "address",
          "name": "newOwner",
          "type": "address"
        }
      ],
      "name": "transferOwner",
      "outputs": [],
      "stateMutability": "nonpayable",
      "type": "function"
    }
  ],
  "bytecode": {
    "object": "0x6080604052600080546001600160a01b0319163317905534801561002257600080fd5b5060da806100316000396000f3fe6080604052348015600f57600080fd5b506004361060285760003560e01c80634fb2e45d14602d575b600080fd5b603c60383660046076565b603e565b005b6000546001600160a01b03163314605457600080fd5b600080546001600160a01b0319166001600160a01b0392909216919091179055565b600060208284031215608757600080fd5b81356001600160a01b0381168114609d57600080fd5b939250505056fea2646970667358221220dcfe511770084b989c63072079bff3dd00903a6f6096723fe043c5d9fbe0c03a64736f6c63430008140033",
    "linkReferences": {}
  },
  "methodIdentifiers": {
    "transferOwner(address)": "4fb2e45d"
  },
  "id": 19
}